{
  "contractName": "LoanCoins",
  "abi": [
    {
      "constant": true,
      "inputs": [
        {
          "name": "_email",
          "type": "string"
        }
      ],
      "name": "getUser",
      "outputs": [
        {
          "name": "password",
          "type": "string"
        },
        {
          "name": "actor",
          "type": "string"
        },
        {
          "name": "userAccount",
          "type": "address"
        }
      ],
      "payable": false,
      "stateMutability": "view",
      "type": "function"
    },
    {
      "constant": false,
      "inputs": [],
      "name": "destroy",
      "outputs": [],
      "payable": false,
      "stateMutability": "nonpayable",
      "type": "function"
    },
    {
      "constant": true,
      "inputs": [],
      "name": "owner",
      "outputs": [
        {
          "name": "",
          "type": "address"
        }
      ],
      "payable": false,
      "stateMutability": "view",
      "type": "function"
    },
    {
      "constant": true,
      "inputs": [
        {
          "name": "",
          "type": "bytes32"
        }
      ],
      "name": "users",
      "outputs": [
        {
          "name": "password",
          "type": "string"
        },
        {
          "name": "actor",
          "type": "string"
        },
        {
          "name": "userAccount",
          "type": "address"
        }
      ],
      "payable": false,
      "stateMutability": "view",
      "type": "function"
    },
    {
      "constant": false,
      "inputs": [
        {
          "name": "_email",
          "type": "string"
        },
        {
          "name": "_password",
          "type": "string"
        },
        {
          "name": "_actor",
          "type": "string"
        }
      ],
      "name": "registerUser",
      "outputs": [],
      "payable": true,
      "stateMutability": "payable",
      "type": "function"
    },
    {
      "constant": false,
      "inputs": [
        {
          "name": "s",
          "type": "string"
        }
      ],
      "name": "stringToBytes",
      "outputs": [
        {
          "name": "",
          "type": "bytes32"
        }
      ],
      "payable": false,
      "stateMutability": "nonpayable",
      "type": "function"
    },
    {
      "inputs": [],
      "payable": false,
      "stateMutability": "nonpayable",
      "type": "constructor"
    }
  ],
  "bytecode": "0x6060604052341561000f57600080fd5b33600160006101000a81548173ffffffffffffffffffffffffffffffffffffffff021916908373ffffffffffffffffffffffffffffffffffffffff160217905550610ad58061005f6000396000f300606060405260043610610078576000357c0100000000000000000000000000000000000000000000000000000000900463ffffffff16806331feb6711461007d57806383197ef0146101f25780638da5cb5b14610207578063cea6ab981461025c578063d637dcfa146103d5578063e106fb4b146104ad575b600080fd5b341561008857600080fd5b6100d8600480803590602001908201803590602001908080601f01602080910402602001604051908101604052809392919081815260200183838082843782019150505050505091905050610526565b6040518080602001806020018473ffffffffffffffffffffffffffffffffffffffff1673ffffffffffffffffffffffffffffffffffffffff168152602001838103835286818151815260200191508051906020019080838360005b8381101561014e578082015181840152602081019050610133565b50505050905090810190601f16801561017b5780820380516001836020036101000a031916815260200191505b50838103825285818151815260200191508051906020019080838360005b838110156101b4578082015181840152602081019050610199565b50505050905090810190601f1680156101e15780820380516001836020036101000a031916815260200191505b509550505050505060405180910390f35b34156101fd57600080fd5b6102056106fc565b005b341561021257600080fd5b61021a61078f565b604051808273ffffffffffffffffffffffffffffffffffffffff1673ffffffffffffffffffffffffffffffffffffffff16815260200191505060405180910390f35b341561026757600080fd5b6102816004808035600019169060200190919050506107b5565b6040518080602001806020018473ffffffffffffffffffffffffffffffffffffffff1673ffffffffffffffffffffffffffffffffffffffff1681526020018381038352868181546001816001161561010002031660029004815260200191508054600181600116156101000203166002900480156103405780601f1061031557610100808354040283529160200191610340565b820191906000526020600020905b81548152906001019060200180831161032357829003601f168201915b50508381038252858181546001816001161561010002031660029004815260200191508054600181600116156101000203166002900480156103c35780601f10610398576101008083540402835291602001916103c3565b820191906000526020600020905b8154815290600101906020018083116103a657829003601f168201915b50509550505050505060405180910390f35b6104ab600480803590602001908201803590602001908080601f0160208091040260200160405190810160405280939291908181526020018383808284378201915050505050509190803590602001908201803590602001908080601f0160208091040260200160405190810160405280939291908181526020018383808284378201915050505050509190803590602001908201803590602001908080601f016020809104026020016040519081016040528093929190818152602001838380828437820191505050505050919050506107fd565b005b34156104b857600080fd5b610508600480803590602001908201803590602001908080601f01602080910402602001604051908101604052809392919081815260200183838082843782019150505050505091905050610904565b60405180826000191660001916815260200191505060405180910390f35b61052e6109dc565b6105366109dc565b60008061054285610904565b905060008082600019166000191681526020019081526020016000206000018054600181600116156101000203166002900480601f0160208091040260200160405190810160405280929190818152602001828054600181600116156101000203166002900480156105f55780601f106105ca576101008083540402835291602001916105f5565b820191906000526020600020905b8154815290600101906020018083116105d857829003601f168201915b5050505050935060008082600019166000191681526020019081526020016000206001018054600181600116156101000203166002900480601f0160208091040260200160405190810160405280929190818152602001828054600181600116156101000203166002900480156106ad5780601f10610682576101008083540402835291602001916106ad565b820191906000526020600020905b81548152906001019060200180831161069057829003601f168201915b50505050509250600080826000191660001916815260200190815260200160002060020160009054906101000a900473ffffffffffffffffffffffffffffffffffffffff169150509193909250565b600160009054906101000a900473ffffffffffffffffffffffffffffffffffffffff1673ffffffffffffffffffffffffffffffffffffffff163373ffffffffffffffffffffffffffffffffffffffff16141561078d57600160009054906101000a900473ffffffffffffffffffffffffffffffffffffffff1673ffffffffffffffffffffffffffffffffffffffff16ff5b565b600160009054906101000a900473ffffffffffffffffffffffffffffffffffffffff1681565b6000602052806000526040600020600091509050806000019080600101908060020160009054906101000a900473ffffffffffffffffffffffffffffffffffffffff16905083565b60008061080985610904565b91506000806000846000191660001916815260200190815260200160002060020160009054906101000a900473ffffffffffffffffffffffffffffffffffffffff1673ffffffffffffffffffffffffffffffffffffffff16111561086c57600080fd5b60008083600019166000191681526020019081526020016000209050338160020160006101000a81548173ffffffffffffffffffffffffffffffffffffffff021916908373ffffffffffffffffffffffffffffffffffffffff160217905550838160000190805190602001906108e39291906109f0565b50828160010190805190602001906108fc9291906109f0565b505050505050565b600061090e610a70565b60008084925060009150600090505b60208110156109ce5782518110156109b057828181518110151561093d57fe5b9060200101517f010000000000000000000000000000000000000000000000000000000000000090047f0100000000000000000000000000000000000000000000000000000000000000027f01000000000000000000000000000000000000000000000000000000000000009004821791505b601f8110156109c157610100820291505b808060010191505061091d565b816001029350505050919050565b602060405190810160405280600081525090565b828054600181600116156101000203166002900490600052602060002090601f016020900481019282601f10610a3157805160ff1916838001178555610a5f565b82800160010185558215610a5f579182015b82811115610a5e578251825591602001919060010190610a43565b5b509050610a6c9190610a84565b5090565b602060405190810160405280600081525090565b610aa691905b80821115610aa2576000816000905550600101610a8a565b5090565b905600a165627a7a7230582054078da15f8a154baa0f8820e537bcbbaa830378d0782cf8162922c22648e4f20029",
  "source": "contract LoanCoins {\nstruct User {\n  string password;\n  string actor;\n  address userAccount;\n  }\n  mapping (bytes32 => User) public users;\n\n  address public owner;\n  \tfunction LoanCoins() {\n  \t\towner = msg.sender;\n\n  \t}\n  function registerUser(string _email, string _password,string _actor) payable public {\n    bytes32 email = stringToBytes(_email);\n\n    if(users[email].userAccount>0){\n      throw;\n    }\n\n    User u = users[email];\n        u.userAccount = msg.sender;\n        u.password = _password;\n        u.actor = _actor;\n  }\n\n  function getUser(string _email) constant returns (string password,string actor, address userAccount) {\n    bytes32 email = stringToBytes(_email);\n    password = users[email].password;\n    actor = users[email].actor;\n    userAccount = users[email].userAccount;\n\n  }\n\n  // Converts 'string' to 'bytes32'\n\tfunction stringToBytes(string s) returns (bytes32) {\n\t  bytes memory b = bytes(s);\n\t  uint r = 0;\n\t  for (uint i = 0; i < 32; i++) {\n\t      if (i < b.length) {\n\t          r = r | uint(b[i]);\n\t      }\n\t      if (i < 31) r = r * 256;\n\t  }\n\t  return bytes32(r);\n\t}\n\n\tfunction destroy() {\n\t\tif (msg.sender == owner) {\n\t\t\tsuicide(owner);\n\t\t}\n\t}\n}\n",
  "sourcePath": "/home/anusha/Dharma/LoanCoins_Dharma/contracts/LoanCoins.sol",
  "compiler": {
    "name": "solc",
    "version": "0.4.18+commit.9cf6e910.Emscripten.clang"
  },
  "schemaVersion": "1.0.1",
  "updatedAt": "2018-04-14T19:13:44.801Z"
}